:400000000010002011000000850200008502000008B500F051F9C04610B5154C22688023DB0213432360182000F002FA2268114B13402360104A114B1A601022104B1A6054
:400040002022104B1A60802212060F4B1A600F4A0F4B1A600F4A104B1A6009200F4900F091F9092000F078F900220D4B1A6010BD00010B40FFFFFBFF0600008004010B4020
:40008000080202400C02024008010B400E000080000002401000008040000240450600000C020B4038B572B60024244D0CE063001B195B00EB1899881A8858880004104345
:4000C00000F044F90134E4B2012CF0D9902212041B4B1A60EE2212021A4B1A60EE221A4B1A6099231B04194A1360194A1360194B197802220A431A70174A11783C208143F7
:40010000142001431170197816220A431A702023124A1360C0218902114A1160114A1360D8221201104B1A600322104B1A6024220F4B1A60FFF770FF38BDC0461819000087
:40014000000001400C0001401000014000500F4030500F4000700F4001700F4000000440080004401800044008030440000404400804044010B5064C2378002B07D1054BDB
:40018000002B02D0044800E000BF0123237010BD48010020000000000C19000008B5084B002B03D00748084900E000BF07480368002B03D0064B002B00D0984708BDC0464A
:4001C000000000000C1900004C010020C80000200000000070B586B062B605AB00221A7004225A708F2204AB1A7000F05BFC00F091FA642000F0FAF86424204E204D09E068
:40020000622005A90222012300F040FBC4B2012000F0ECF8002CF3D1142000F0E7F8642409E0622004A90122012300F02FFBC4B2012000F0DBF8002CF3D1642409E062207F
:4002400003A90222012300F099FBC4B2012000F0CDF8002CF3D103AB1A785B7812029A1892B201A8311C00F043FF01A800F07EFC281C00F07BFC6424CCE7C046101900005D
:4002800014190000FEE7C04608B5094B1B681818084A821A802A02DC054A106005E000F0F3FE0C23036001235B42181C08BDC046CC000020C0010020F8B50F4F0F4E0024BC
:4002C00012E031687368B568221C02E001C901C30432AA42FAD1F168221C01E010C304328A42FBD11036013F002FEAD100F0D2FEFFF770FFFEE7C04601000000B01900007D
:4003000038B500230D4C0E4D0E4808E0032B02D89A00515900E0211C9A00115001332F2BF4D9FFF7BFFE0022074B1A608023DB05196801220A431A6038BDC04685020000EB
:400340000000000000000020C000002008B50A1C002100F0C5FE08BD1F23184001238340181C014B1860704700E100E01F23184001238340181C014B1860704780E100E09F
:4003800001BE704738B5041C0D1C1F2802D90020FFF7F6FFA400024BE4182068256038BD4000002070B5041C0E1E032E02D90020FFF7E6FF1F2C02D90020FFF7E1FF032559
:4003C0002540ED00063500F005FCA408A400064BE41823680322AA409343AE40351C1D43256000F0FBFB70BD00E400E070B5041C80252D02074E04E0306800F0E1FB064B70
:40040000E418AC42F8D8034B5868604300F0D8FB70BDC046D00000200080FFFF08B5034B1B7A584300F0CCFB08BDC046D0000020F0B557464E464546E0B4041C00F0CAFB76
:400440008046E51E2D2D73D83F4B1B78DBB2A34208D33E4B1B78DBB29A463D4B1B78DBB2994631E03B4B1B78DBB2A34208D33A4B1B78DBB29A46394B1B78DBB2994623E012
:40048000374B1B78DBB2A34208D3364B1B78DBB29A46354B1B78DBB2994615E0334B1B78DBB2A34208D3324B1B78DBB29A46314B1B78DBB2994607E02F4B1B78DBB29A462E
:4004C0002E4B1B78DBB299462D4B5E5D2F2E09D92A2C07D919222B4B1A60052000F070FB192703E0274B1F683F231F40BE4206D2234B5A5D234B1A60052000F061FB1F4A95
:40050000A4182278D2B2204B1A60204B52461A601F4B4A461A600520FFF780FFBE420AD9174B5A5D174B1A60052000F049FB02E00020FFF725FF404600F050FB1CBC9046B5
:400540009946A246F0BDC046C0F1FF0FC1F1FF0FC2F1FF0FC3F1FF0FC4F1FF0FC5F1FF0FC6F1FF0FC7F1FF0FC8F1FF0FC9F1FF0FCAF1FF0FCBF1FF0FCCF1FF0FCDF1FF0F34
:40058000241900002CFF0B4028FF0B401CFF0B4020FF0B40044B1A68C0231B021A4201D0012000E00020704700010B4008B500F011FB044B1968C02212020A431A6000F0EE
:4005C0000DFB08BD00010B4010B500F003FB084B1968084A11408024E4012143196019680A40802109020A431A6000F0F7FA10BD00010B40FF3FFFFF38B5051C00F0EAFAFC
:40060000041CFFF7C7FF002803D0FFF7DDFF012200E00022084B1D40084B1868084901400D431D601B68012A01D1FFF7BFFF201C00F0D4FA38BDC0460404040010020B4078
:40064000FBFBFBFF10B5244B1B685A0715D5234B1B685A070ED5224B9C69042214401F490868A0430860996991439961DB68002B00D098470420FFF7BFFF174B1B685A053B
:4006800018D5164B1B685A0510D5154B9A698020C0001040114A1168814311609969114A0A409A611B69002B00D098478020C000FFF7A2FF084B1B685A030CD5074B1B6829
:4006C0005A0304D5064B5B69002B00D098478020C002FFF791FF10BD10020B40E000002064010020FFFBFFFF08B50A20FFF734FE08BDC04608B500F01DF808BD08B5044BD9
:400700001968802212060A431A60FFF7EDFF08BD0000064008B5064B1B78002B04D1FFF7E9FF0122024B1A70FFF7E8FF08BDC0468001002010B51C4B19680C220A431A6066
:4007400000241A4B1C601A4A1A4B1A601A4B1B4A13601B4A14601B4A14601B4A13601B4B1C600A20FFF702FE0A200321FFF71AFE0A201749FFF706FE164B1C60164B1C60CE
:40078000164B1C601422FF32154B1A60154B1C60154B1C601022154B1A70154B1C80154B1C60154B1C6010BD70000640000006407708008060000640070100800003064054
:4007C00004030640100306400002064004020640E90B0000C80E0640880E0640480F0640080F0640C80F0640880F064094010020A4010020B40100209C01002010B51F4BA4
:400800001C6800F0BFF90028FBD0002000F0C2F91B4B1A680F218A431A601A4B1A68520052081A60A3060FD5002000F0B3F90A20FFF7F4FD012000F0ADF900F0B7F9002889
:40084000FBD00A20FFF7EAFD002000F0A3F90A20FFF7E4FD01220C4B1A600A4B1968802212060A431A60064B1A680F218A430E210A431A60012000F08DF910BD64000640DA
:40088000100001400000064068000640F0B5474680B4071C0D1C90461E1C002919D0294B1B78102B0AD10A20FFF760FD264B1B68DA0701D508240FE000240DE0214B1B78AF
:4008C000602B08D1214B1A8808218A431A80002402E0042400E00424002C2BD12822194B1A7000231A4A13601A4A13601A4B42461A601A4B1D60F2B2194B1A707F00FF2313
:400900001F40124B1A8802218A431A80154A164B1A604023154A1360154A1360F30704D5FFF76CFF134B1F6004E0124B1F600222114B1A600A20FFF70FFD201C04BC9046C5
:40094000F0BDC0469401002064000640A4010020980100209C010020A0010020B8010020AC01002017030000000F0640800F0640880F06404002064068000640F0B547463A
:4009800080B4071C0D1C90461E1C002919D02E4B1B78102B0AD10A20FFF7E8FC2B4B1B68DA0701D508240FE000240DE0264B1B78602B08D1264B1A8808218A431A80002464
:4009C00002E0042400E00424002C35D129221E4B1A7000221F4B1A601F4B42461A601F4A1560F2B21E490A707F00FF22174001210F43174A1088884310801A491A4A1160A9
:400A00001B68072B03D80422184B1A6008E0184B1968802252000A431A600822134B1A60F30704D5FFF7EAFE124B1F6004E0114B1F600222104B1A600A20FFF78DFC201C70
:400A400004BC9046F0BDC0469401002064000640A4010020B4010020B0010020A8010020AC01002017030000000F0640C80F064060000640400206406800064008B500F0B8
:400A800067F808BD08B500F01DF808BD08B5044B1968802212060A431A60FFF7EFFF08BD0000074008B5064B1B78002B04D1FFF7E9FF0122024B1A70FFF7E8FF08BDC0466C
:400AC00088010020114A124B1A600023114A1360012211490A600721104801601048016010490B6010490A601049114A1160114A1360114A1360114A1360114A1360114A6A
:400B00001360114A1360114A136070470B00000200000740400007404800074000030740040307401003074044000740070000800002074004020740880E0740C80E0740F1
:400B4000480F0740080F0740C80F0740880F0740044B1968044A0A40902109040A431A607047C04600000140FFFF0FFF38B5051C002402E000F02AFA0134285D0028F9D1B2
:400B800038BDC046024B18688007C00F7047C04604040440044B1968FE220A4001210840104318607047C04600040440024B1868012318407047C046040404400000000048
:400BC0000230800804D0C0460138FDD1C046C046C0467047EFF3108072B6704780F310887047C046C046C046F8B54F464646C0B4AE4B1B68002B00D09847AD4B1B68D8077A
:400C000002D50022AB4B1A60AB4B1B78990628D5AA4B1B68DA0507D5A94B1988C02292000A431A80012300E00023A44A1268D40706D5A34B1988902292000A431A800123E0
:400C4000002B0FD09C4A1278D00701D5012100E002219B4A1088014311800021964A117000E00023944A1278910600D460E1934A1268D40611D51022924B1A608E4B1B7831
:400C8000D80701D5012100E002218D4B1A880A431A801022884B1A7075E1874A1278110720D5864A126894070AD50222854B1A60834B1988882292000A431A80012311E0D3
:400CC0007D4A1278D00703D525217B4A117009E02421794A11707C4A1268002A02D010217A4A1160744A1278510700D4B4E0724A1278D4074AD5764A1268100728D5754AFF
:400D00001168754A12680F2002407448006812188A1A082A09D8002A14D1714B1968714A0A401A60012308220CE008220AE00868346820182C68E4B2047008680130086087
:400D4000013A02E06549684E684D002AEFD119E05F4A1268500715D5604A116862480068411862480068C0B208701168013111601168584A1268914203D204215C4A1160D7
:400D800000E001235B495C4A116065E04B4A1268910727D502224B4B1A60584B1968584B1A680F2002401B681C0401D5012300E00023D318CA1A514B1A601A68514B1A6081
:400DC0003F4B1988842292000A431A804E4B1968802252020A431A6019684C4A0A401A60012339E04A4A1268D00610D42BE03868316888421AD2116844462468611809786F
:400E0000C9B26046016011680131116009E03C4D0F218946394F2C4E3A1C3E4CA0463E48844629684C4621400829E0D1334A1168254A1268914202D14021244A11603749E0
:400E4000374A116008E0324A1268500604D52B4B1A682C4B1A600123002B00D193E0204B1968204A0A401A6000232E4A1360174A13602D4B1B7899070ED50F4B1B78DA079F
:400E800001D5092100E00A210D4B1A880A431A806022094B1A7076E0244B1B689C0601D5182200E01022124B1A606CE0840100208C0E0640880E0640940100200C0F064040
:400EC000A4010020000F0640A0010020880F0640CC0F0640B001002008030640B401002060000640FFFEFFFFA80100204003064068000640ED0F0000C00F064098010020B7
:400F0000080206409C01002004020640FFFFFEFF8C0F0640B801002040020640F3070000800F0640C80F0640AC01002064000640174B1B78D80626D4164B1A68520052085C
:400F40001A601021124A1170134A10681349014011601068124901401160002211490A6011490A601149124A11601249124A11601249134A11601349134A11601968802212
:400F800012060A431A600CBC90469946F8BDC046940100200000064060000640FF5FFFFFFFFCFFFFC80F0640880F0640ED0F0000800F0640F3070000C00F0640FF0F00003C
:400FC000400F064017030000000F064004490F220B681340082BFBD0024B18607047C0460802074040020740002934D00123002210B488422CD301242407A14204D2814283
:4010000002D209011B01F8E7E400A14204D2814202D249005B00F8E7884201D3401A1A434C08A04202D3001B5C0822438C08A04202D3001B9C082243CC08A04202D3001BC7
:40104000DC082243002803D01B0901D00909E3E7101C10BC7047002801D00020C04307B4024802A14018029003BDC046190000000029F0D003B5FFF7B9FF0EBC4243891ADE
:401080001847C0467047C046014B18687047C0464401002070B50E4B0E4D0024ED1AAD101E1CAC4204D0A300F35898470134F8E700F06CFC084B094D0024ED1AAD101E1C5F
:4010C000AC4204D0A300F35898470134F8E770BD981900009819000098190000A0190000031C8218934202D019700133FAE770470EB400B59CB01DAB04CB822202A9920064
:401100008A810A4A02908A604A6101225242CA81074A086110681D9A019300F06BF8029A002313701CB008BC03B01847FFFFFF7F44010020F0B58D6885B0071C0C1C0392E3
:401140000193AB4245D390228B89D20013423DD062690326564309692068F20F401A96190290021C0198013212187610964200D2161C381C5A050FD5311C00F02BFB051E26
:4011800013D0029A216900F0BAFAA289184B134080221343A38111E0321C00F06FFB051E0CD1381C216900F0CDFA0C233B60A389402213430120A381404217E0029B2561C8
:4011C000ED1825606661019DF61AA6600198A84200D2019D2A1C2068039900F099FAA2680020531BA36023685D19256005B0F0BD7FFBFFFFF0B59FB0039005938B890E1CB2
:40120000171C19060FD53269002A0CD1402100F0E1FA30603061002803D103990C230B60C9E04023736106AD00236B6120236B763023AB763C1C2378002B03D1E21B0292BA
:4012400011D003E0252BF9D00134F4E70398311C3A1C029BFFF76EFF013000D1A6E06969029A8B186B612378002B00D19EE0012252426A606A4600235B3201342B60EB60DD
:40128000AB601370AB654E4F2178381C052200F02BFA002807D0C71B2B680120B840184328600134EFE72B68D90603D56A4620215B3211701A0703D56A462B215B32117003
:4012C00022782A2A01D0099B0EE0059A111D12680591002A01DB099204E05242EA60022213432B60013409E02278303A092A04D80A214B4301349B18F6E7099323782E2B19
:4013000018D163782A2B09D1059B02341A1D1B680592002B0DDA01235B420AE0013400232278303A092A04D80A214B4301349B18F6E70793234F2178381C032200F0D4F912
:40134000002806D0C71B2B684020B84018432860013421781C480622671C297600F0C4F9002812D0194B002B06D1059B0722073393430833059314E005AB00930398291C63
:40138000321C134B00E000BF07E005AB00930398291C321C0E4B00F091F804900499013104D06A69049953186B6143E7B3895A0601D40B9801E0012040421FB0F0BDC04696
:4013C000561900005C190000601900000000000035110000F7B5151C01930A698B68061C0C1C934200DA131C221C2B6043321278002A01D001332B602068800602D52B6851
:4014000002332B60216806270F401FD0231C43331B785A1E9341226892061FD5E11840313020C870211C5A1C45310978A21840320233D17012E0221C301C0199193201238B
:40144000089FB847013011D0009F01370097E0682968009F431A9F42EDDBD7E7221C301C01994332089FB847013002D10120404223E0206806212B68E26801400025042902
:4014800003D1D51AEB43DB171D40A26823699A4201DDD31AED1800270097009FAF420BDA221C301C01991A320123089FB8470130DCD0009F0137EFE70020FEBDF0B50D1C0A
:4014C0008BB0433506920590079304950B7E0C1C109A6E2B00D1A7E011D8632B22D009D8002B00D1B0E0582B00D0C0E045310B707B4D4EE0642B1CD0692B1AD0B7E0732BAF
:4015000000D1A5E009D86F2B29D0702B00D0AEE00E68202333430B6036E0752B1FD0782B32D0A4E013680D1C191D423511601B689FE0216813680E0603D5191D11601E689F
:4015400005E04806F9D5191D116000215E5E644B002E3BDA049D2D2276422A7036E0216813680E0603D5191D11601E6804E04806F9D5191D1E881160594B227E0393082729
:401580006F2A1ED00A271CE0231C78214533554D197011682368081D039510601E0601D50E6802E05806FBD50E88D90702D52022134323601027002E03D1226820239A4300
:4015C0002260231C002243331A7001E003930A276368A360002B03DB2568042295432560002E02D1049D002B0ED0049D301C391CFFF73EFD0398013D435C301C2B70391CA7
:40160000FFF7F2FC061EF1D1082F09D12168C90706D5626823699A4202DC013D30232B70049E731B23612AE0086813684969050604D5181D10601B68196005E04606F8D581
:40164000181D10601B68198000232361049D16E01368191D11601D68281C00F047F963682061984200D923612069606004E0251C42352B7001232361049E00233370079E98
:4016800005980096211C09AA069BFFF7A3FE013002D10120404221E02A1C059806992369079DA8470130F4D02668B60705D4099BE068984212DA181C10E00025E068099988
:4016C000431A9D42F3DA221C0598069919320123079EB0470130DCD00135EFE70BB0F0BD6719000078190000C9B28218904204D003788B4202D00130F8E70020704710B579
:401700000023934203D0CC5CC4540133F9E710BD70B5814201D300230CE08C18A042FAD28518131C013B0BD351426618F65C6918CE54F7E7934203D0CC5CC4540133F9E7DA
:4017400070BD000030B5002940D004390B68002B00DAC9181E4A1368141C002B02D14B60116033E099420FD208680A189A4205D113685268C01808604A6000E04B6021601D
:4017800024E08A4203D8131C5A68002AF9D11D685C198C420BD10968691858181960904214D114685268091919605A600EE08C4202D90C23036009E008680C18944203D188
:4017C00014685268001908604A60596030BDC0469001002070B50323CD1C9D430835061C0C2D01D20C2501E0002D3FDB8D423DD3204B1C681A1C211C002913D00868431B38
:401800000DD40B2B02D90B60CC181EE08C4202D1636813601AE0486860600C1C16E00C1C4968E9E7144C2068002803D1301C00F04BF82060301C291C00F046F8431C15D073
:40184000C41C03239C4384420AD12560201C0B300722231D9043C31A0BD05A42E25008E0211A301C00F030F80130EED10C233360002070BD900100208C010020F8B5061C71
:401880000C1C151C002904D1111CFFF7A3FF041C18E0002A03D1FFF755FF2C1C12E000F02CF8A8420ED2301C291CFFF793FF071E07D0211C2A1CFFF722FF301C211CFFF766
:4018C00041FF3C1C201CF8BD38B5074C0023051C081C2360FEF7D8FC431C03D12368002B00D02B6038BDC046BC0100200023C25C0133002AFBD1581E704704390B68181FD0
:40190000002B02DAC8581B18181F704700000000256400000D0A000000300F40000400400F400004030405060708090A0B0C0E0F101112131415161718191B1C1D1E1F20C3
:4019400021222325262728292A2B2E2F30313233343500004300232D302B2000686C4C006566674546470030313233343536373839414243444546003031323334353637ED
:40198000383961626364656600000000F8B5C046F8BC08BC9E4670479D01000001030000F8B5C046F8BC08BC9E46704775010000C0190000C8000020800000007800000004
:4019C00000000000C00100200000E02EC05D00001800000000366E0104040400000000000000000000000000000000000000000000000000000000000000000054190000A5
:401A0000000000000000000000000000000000000000000000000000000000000000000000000000000000000000000000000000000000000000000000000000E4000020A2
:401A40000000000000000000000000000000000000000000000000000000000000000000000000000000000000000000000000000000000000000000000000000000000066
:401A80000000000000000000000000000000000000000000000000000000000000000000000000000000000000000000000000000000000000000000000000000000000026
:401AC00000000000000000000000000000000000000000000000000000000000000000000000000000000000000000000000000000000000000000000000000000000000E6
:401B000000000000000000000000000000000000000000000000000000000000000000000000000000000000000000000000000000000000000000000000000000000000A5
:0200000490303A
:02000000176A7D
:0200000490402A
:200000000000000000000000000000000000000000000000000000000000000000000000E0
:0200000490501A
:0C000000000204C81193110104D028FD77
:0200000490600A
:0100000001FE
:00000001FF