:400000000010002011000000B1020000B102000008B500F067F9C04638B5164C23688022D20213432360182000F01AFA2268124B13402360114A124B1A601022114B1A60AA
:400040001032114B1A6080221206104B1A60002525600F4A0F4B1A600F4A104B1A6009200F4900F0A3F9092000F08AF90D4B1D6038BDC04600010B40FFFFFBFF0600008091
:4000800004010B40080202400C02024008010B400E000080000002401000008040000240710600000C020B4010B572B6002410E0244863001A195200821891881B195B00B7
:4000C0001A5AC31858880004104300F053F90134E4B2012CECD9902212041B4B1A60EE2212021A4B1A60EE22194B1A6099231B04184A1360184A1360184B197802220A43FE
:400100001A70174802783C218A4328390A430270197816220A431A702023124A1360C0218902114A1160114A1360D8221201104B1A6003220F4B1A6021320F4B1A60FFF762
:400140006BFF10BD74190000000001400C0001401000014000500F4030500F4000700F4001700F4000000440080004401800044008030440000404400804044010B5064C05
:400180002378002B07D1054B002B02D0044800E000BF0123237010BD50010020000000006819000008B5084B002B03D00748084900E000BF07480368002B00D108BD064BDA
:4001C000002BFBD09847F9E7000000006819000054010020C80000200000000010B562B600F074FC00F0ACFA642000F017F900F013F8021C054C201C054900F0ADFF201C49
:4002000000F0C8FC034800F0C5FCF0E79C0100206C1900007019000008B56422214B1A700AE0622020490222012300F047FB1D4B1870012000F0F2F81A4B1B78002BF0D115
:40024000142000F0EBF86422164B1A700BE06220154904310122012300F030FB114B1870012000F0DBF80F4B1B78002BEFD164220C4B1A700AE062200C490222012300F0A4
:4002800093FB084B1870012000F0C8F8054B1B78002BF0D1054B18785B780002C01880B208BDC046A1010020CC000020A4010020FEE7C04608B5031C084A1068C318084A7A
:4002C0009A1A802A02DC054A136005E000F010FF0C2303600120404208BDC046D4000020D001002070B50F4E0F4D13E029686B68AC68002202E001C901C30432A242FAD177
:40030000E868002202E0002102C304328242FAD11035013E002EE9D100F0F0FEFFF75EFFFEE7C046010000000C1A000008B500230AE0032B03D89A000A49505800E00A4875
:4003400099000A4A885001332F2BF2D9FFF7ACFE0022074B1A608022D205116801230B43136008BD00000000B102000000000020C000002008B50A1C002100F0E5FE08BDE6
:400380001F2318401E3B8340181C014B1860704700E100E01F2318401E3B8340181C014B1860704780E100E001BE704738B5041C0D1C1F2802D90020FFF7F6FFA400034BA6
:4003C0009C4664442068256038BDC0464000002070B5041C0E1E032E02D90020FFF7E4FF1F2C02D90020FFF7DFFF03252540ED00063500F003FCA408A400074B9C466444AB
:4004000023680322AA409343AE40351C1D43256000F0F8FB70BDC04600E400E010B5041C06E0084B186800F0DFFB074B9C46644480231B029C42F4D8024B5868604300F000
:40044000D3FB10BDD80000200080FFFF08B5034B1B7A584300F0C8FB08BDC046D8000020F0B557464E46C0B483B0041C00F0C6FB0190E71E2D2F74D83F4B1B78DBB2A3429F
:4004800008D33E4B1B78DBB29A463D4B1B78DBB2994631E03B4B1B78DBB2A34208D33A4B1B78DBB29A46394B1B78DBB2994623E0374B1B78DBB2A34208D3364B1B78DBB2CC
:4004C0009A46354B1B78DBB2994615E0334B1B78DBB2A34208D3324B1B78DBB29A46314B1B78DBB2994607E02F4B1B78DBB29A462E4B1B78DBB299462D4BDE5D2F2E09D987
:400500002A2C07D919222B4B1A60052000F06CFB192503E0274B1D683F231D40AE4206D2234BDA5D234B1A60052000F05DFB1F4B9C4664442378DBB21F4A13601F4B52464B
:400540001A601F4B4A461A600520FFF77FFFAE420AD9174BDA5D174B1A60052000F044FB02E00020FFF720FF019800F04BFB03B00CBC91469A46F0BDC0F1FF0FC1F1FF0F14
:40058000C2F1FF0FC3F1FF0FC4F1FF0FC5F1FF0FC6F1FF0FC7F1FF0FC8F1FF0FC9F1FF0FCAF1FF0FCBF1FF0FCCF1FF0FCDF1FF0F801900002CFF0B4028FF0B401CFF0B4006
:4005C00020FF0B40034B1868C0231B02184000D00120704700010B4008B500F00FFB044A1368C02109020B43136000F00BFB08BD00010B4010B500F001FB08490A68084B7C
:400600001A408024E40122430A600A6813408022120213430B6000F0F5FA10BD00010B40FF3FFFFF70B5061C00F0E8FA041CFFF7C9FF002803D0FFF7DDFF012500E00025A9
:400640000848331C0340084A106808490840184310601368012D01D1FFF7BEFF201C00F0D1FA70BD0404040010020B40FBFBFBFF10B5244B1B685B0715D5234B1B685B0769
:400680000ED5224B9969042001401F4C22688A4322609A6982439A61DB68002B00D098470420FFF7BFFF174B1B685B0518D5164B1B685B0510D5154B99698022D200114005
:4006C000114802688A4302609969114A0A409A611B69002B00D098478020C000FFF7A2FF084B1B685B030CD5074B1B685B0304D5064B5B69002B00D098478020C002FFF7A9
:4007000091FF10BD10020B40E80000206C010020FFFBFFFF08B50A20FFF732FE08BDC04608B500F01DF808BD08B5044A1368802109060B431360FFF7EDFF08BD000006402F
:4007400008B5064B1B78002B04D1FFF7E9FF0122024B1A70FFF7E8FF08BDC0468801002010B51D4A11680C230B43136000241B4B1C601B4A1B4B1A601B4B1C4A13601C4A2A
:4007800014601C4A14601C4A13601C4B1C600A20FFF700FE0A200321FFF71AFE0A201849FFF704FE174B1C60174B1C60174B1C601422FF32164B1A60164B1C60164B1C609C
:4007C000043AFF3A154B1A70154B1C80154B1C60154B1C6010BDC0467000064000000640770800806000064007010080000306400403064010030640000206400402064065
:40080000110C0000C80E0640880E0640480F0640080F0640C80F0640880F0640A6010020B4010020C4010020AC01002010B51F4B1C6800F0BBF90028FBD0002000F0BEF950
:400840001B4A13680F218B4313601A4A13685B005B081360A3060FD5002000F0AFF90A20FFF7F4FD012000F0A9F900F0B3F90028FBD00A20FFF7EAFD002000F09FF90A20A6
:40088000FFF7E4FD01220C4B1A600A4A1368802109060B43136006490B680F229343013A13430B60012000F089F910BD64000640100001400000064068000640F0B583B041
:4008C00001900C1C171C1D1C002919D0284B1B78102B0AD10A20FFF75DFD264B1B68DB0701D508260FE000260DE0214B1B78602B08D1214A138808218B431380002602E054
:40090000042600E00426002E2BD12822184B1A7000231A4A13601A4A13601A4B1F601A4B1C60EAB2194B1A70019B5C00FF231C40114A138802218B431380154A154B1A60D9
:400940004023154A1360154A1360EB0704D5FFF76DFF134B1C6004E0114B1C600222114B1A600A20FFF70CFD301C03B0F0BDC046A601002064000640B4010020A8010020C9
:40098000AC010020B0010020C8010020BC01002017030000000F0640800F0640880F06404002064068000640F0B583B001900C1C171C1D1C002919D02D4B1B78102B0AD14C
:4009C0000A20FFF7E7FC2B4B1B68DB0701D508260FE000260DE0264B1B78602B08D1264A138808218B431380002602E0042600E00426002E35D129221D4B1A7000221F4BDD
:400A00001A601F4A17601F4B1C60EBB21E490B70019B5C00FF231C400120044316490B8883430B8019491A4B19601368072B03D80422184B1A6008E0174A1368802149005D
:400A40000B4313600822134B1A60EB0704D5FFF7EDFE124B1C6004E0104B1C600222104B1A600A20FFF78CFC301C03B0F0BDC046A601002064000640B4010020C4010020F5
:400A8000C0010020B8010020BC01002017030000000F0640C80F064060000640400206406800064008B500F067F808BD08B500F01DF808BD08B5044A1368802109060B435B
:400AC0001360FFF7EFFF08BD0000074008B5064B1B78002B04D1FFF7E9FF0122024B1A70FFF7E8FF08BDC04690010020114A124B1A600023114A1360012211490A6007218F
:400B0000104801601048016010490B6010490A601049114A1160114A1360114A1360114A1360114A1360114A1360114A1360114A136070470B000002000007404000074063
:400B40004800074000030740040307401003074044000740070000800002074004020740880E0740C80E0740480F0740080F0740C80F0740880F0740044A1168044B0B40F9
:400B8000902109040B4313607047C04600000140FFFF0FFF38B5051C002402E000F008FA0134285D0028F9D138BDC046024B18688007C00F7047C04604040440031C044967
:400BC0000868FE2202400120184010430860704700040440024B1868012318407047C04604040440000000000230800804D0C0460138FDD1C046C046C0467047EFF31080C8
:400C000072B6704780F310887047C046C046C04610B5C04B1B68002B00D09847BE4B1B68DB0702D50022BD4B1A60BD4B1B789B0628D5BC4B1B68DB0507D5BB4A1188C023EB
:400C40009B000B431380012300E00023B54A1268D20706D5B44A118890239B000B4313800123002B0FD0AE4A1278D20701D5012200E00222AC49088802430A800021A84AF1
:400C8000117000E00023A64A1278920600D414E1A44A1268D20611D51022A44B1A60A04B1B78DB0701D5012300E002239E4A11880B43138010229A4B1A7029E1984A12783C
:400CC000120720D5974A126892070AD50222974B1A60954A118888239B000B431380012311E08F4A1278D20703D525218C4A117009E024218A4A11708D4A1268002A02D05E
:400D000014398C4A1160864A1278520700D4ABE0834A1278D20749D5874A1268120727D5864A1268864909680F240C40854909686418141B082C09D8002C16D1824A1168FF
:400D4000824B0B401360012308340EE008240CE07C4A11687E48006841187E480068C0B20870116801311160013C002CF0D119E0714A1268520715D5724A11687448006894
:400D8000411874480068C0B2087011680131116011686A4A1268914203D204216E4A116000E001236D496E4A11605DE05D4A1268920726D502225D4B1A606A4A13680F2199
:400DC0001940136880221202134000D00123CB18654A1168CB1A13601268644B1A60524A118884239B000B431380614B1A68802149020A431A6019685E4A0A401A600123D2
:400E000032E05D4A1268D20612D424E0564A1168474A1268914211D2534A11685748006841180978C9B2564801601168013111604C4A12680F210A40082AE7D14A4A1168D5
:400E40003B4A1268914202D140213A4A11604D494D4A116008E0484A1268520604D5424B1A68424B1A600123002B51D0364A1168364B0B4013600023444A13602D4A1360E8
:400E8000434B1B789B070ED5254B1B78DB0701D5092300E00A23244A11880B43138060221F4B1A7034E03B4B1B689B0601D5182200E01022284B1A602AE0194B1B78DB068B
:400EC00026D4354A13685B005B0813601021144B19701D4B18683149014019601868304901401960002329490B6012490B601B49254B196023491A4B19602A492A4B196027
:400F00002A490A4B19601368802109060B43136010BDC0468C0100208C0E0640880E0640A60100200C0F0640B4010020000F0640B0010020880F0640CC0F0640C001002046
:400F400008030640C401002060000640FFFEFFFFB80100204003064068000640ED0F0000C00F064008020640A8010020AC01002004020640FFFFFEFF8C0F0640C801002082
:400F800040020640F3070000800F0640C80F0640BC0100206400064000000640FF5FFFFFFFFCFFFFFF0F0000400F064017030000044B1B680F221340082BF9D0024B1860C7
:400FC0007047C0460802074040020740002243088B4274D303098B425FD3030A8B4244D3030B8B4228D3030C8B420DD3FF22090212BA030C8B4202D31212090265D0030B30
:401000008B4219D300E0090AC30B8B4201D3CB03C01A5241830B8B4201D38B03C01A5241430B8B4201D34B03C01A5241030B8B4201D30B03C01A5241C30A8B4201D3CB0221
:40104000C01A5241830A8B4201D38B02C01A5241430A8B4201D34B02C01A5241030A8B4201D30B02C01A5241CDD2C3098B4201D3CB01C01A524183098B4201D38B01C01A33
:40108000524143098B4201D34B01C01A524103098B4201D30B01C01A5241C3088B4201D3CB00C01A524183088B4201D38B00C01A524143088B4201D34B00C01A5241411A0A
:4010C00000D20146524110467047FFE701B5002000F00CF802BDC0460029F7D003B5FFF775FF0EBC4243891A1847C0467047C046014B18687047C0464C0100200E4B70B528
:4011000000251E1C0D4CE41AA410A54204D0AB00F35898470135F8E700F066FC084B00251E1C084CE41AA410A54204D0AB00F35898470135F8E770BDF4190000F4190000AA
:40114000F4190000FC190000031C8218934202D019700133FAE770470EB410B59DB002A9029008610B48822488604861012040421FABC881084804CBA400006801938C8112
:4011800000F06CF80023029A13701DB010BC08BC03B01847FFFFFF7F4C010020F0B58E6885B0071C0C1C03920193B34245D390238A89DB001A423DD0032509692368019828
:4011C0005B1A029363695D43EB0F5D19029B6D1001331B189D4200D21D1C381C53050FD5291C00F025FB061E13D0029A216900F0BCFAA289184B134080221343A38111E0F8
:401200002A1C00F06DFB061E0CD1381C216900F0C9FA0C23402201203B60A38940421343A38117E0029B2661F61826606561019EED1AA560019BB34200D2019E321C206811
:40124000039900F09BFA0020A3689B1BA36023689E19266005B0F0BD7FFBFFFFF0B59FB0029005938B890E1C171C1B0610D50B69002B0DD1402100F0DBFA30603061002846
:4012800004D10C23029A01381360D0E040237361002306AD6B6120336B761033AB763C1C2378002B03D1E31B049312D003E0252BF9D00134F4E7049B0298311C3A1CFFF77A
:4012C0006DFF431C00D1ACE06A69049B944663446B612378002B00D1A3E00122002352426A6002A95432521801342B60EB60AB601370AB654F4F2178381C052200F02AFA3F
:40130000002808D0C01B01278740381C2B68013418432860EEE72B68DA0604D55322202102A8121811701A0704D553222B2102A81218117022782A2A01D0099B0EE0059AB8
:40134000111D12680591002A01DB099204E05242EA60022213432B60013409E02278303A092A04D80A214B4301349B18F6E7099323782E2B18D163782A2B09D1059B0234BF
:401380001A1D1B680592002B0DDA01235B420AE0002301342278303A092A04D80A214B4301349B18F6E70793234F2178381C032200F0D0F9002807D0C01B40278740381C03
:4013C0002B6801341843286021781C480622671C297600F0BFF9002812D0194B002B06D10722059B073393430833059314E005AB00930298291C321C124B00E000BF07E0F0
:4014000005AB00930298291C321C0E4B00F08AF80390039B013304D06B69039A9B186B613DE7B3890B985B0601D5012040421FB0F0BDC046B2190000B8190000BC19000078
:40144000000000009D110000F7B5171C01930A698B6800900C1C934200DA131C221C3B6043321278002A01D001333B6023689B0602D53B6802333B60062523681D401ED036
:40148000231C43331B785A1E9341226892061CD53020E1184031C870211C5A1C45310978A21840320233D1700FE0221C0123009801991932089EB047431C0ED00135E3681E
:4014C0003A689B1A9D42F0DBDAE7221C009801994332089DA847431C02D10120404220E006232068E1683A6803400025042B03D18D1AEB43DB171D40A3682269934201DD68
:401500009B1AED180027AF420ADA221C0123009801991A32089EB047431CDED00137F2E70020FEBDF0B58BB006920A1C43320793059004920A7E0C1C109B6E2A00D1A8E05B
:4015400011D8632A22D009D8002A00D1B2E0582A00D0C2E045310A707C4A4FE0642A1DD0692A1BD0B9E0732A00D1A7E009D86F2A29D0702A00D0B0E0202209680A43226046
:4015800037E0752A1FD0782A33D0A6E00E1C1A684236111D196013683370A1E021681A68080606D4490604D5111D19600023D55E02E0111D19601568002D3BDA2D23049AA3
:4015C0006D42137036E021681A68080606D4490604D51568111D1960ADB202E0111D196015685A4B227E03930A276F2A1DD108271BE0221C782145321170554A19680392BE
:40160000081D226818600D68100602D4500600D5ADB2D30702D520231A4322601027002D03D1202322689A432260231C002243331A7002E00A27454B03936368A360002BCE
:4016400003DB0422216891432160002D02D1049E002B0ED0049E281C391CFFF73DFD039B013E5B5C281C3370391CFFF7AFFC051EF1D1082F09D12368DB0706D5636822696D
:40168000934202DC3023013E3370049B9B1B23612BE009681A68080607D4490605D5111D19601368A28A1A8004E0111D1960136862691A600023049E236116E01A68111D37
:4016C000196016680021301C626800F043F8002801D0801B6060636803E0261C42363270012323610023049A1370079B05980093211C069B09AAFFF7A7FE431C02D10120F6
:40170000404221E0236905980699321C079DA847431CF4D023689B0705D4099BE068984212DA181C10E00025E368099A9B1A9D42F3DA221C0123059806991932079EB04785
:40174000431CDCD00135EFE70BB0F0BDC3190000D4190000C9B28218904204D003788B4202D00130F8E700207047002310B5934203D0CC5CC4540133F9E710BD10B581422C
:4017800008D28B18984205D29B1A013A09D3995C8154FAE70023934203D0CC5CC4540133F9E710BD30B500293ED004390B68002B00DAC9181D4A1368141C002B02D14B602B
:4017C000116031E099420DD208680A189A4203D11368C3180B6053684B60216024E08A4203D8131C5A68002AF9D11D685C198C420BD10968691858181960904214D1106885
:401800005268091819605A600EE08C4202D90C23036009E008680C18944203D114685268001908604A60596030BDC04698010020032370B5CC1C9C430834051C0C2C01D20A
:401840000C2405E0002C03DA0C2300202B6042E08C42F9D3204A1368101C191C002913D00A68121B0DD40B2A02D90A608B181FE08B4202D15A6802601BE04A685A600B1C74
:4018800017E00B1C4968E9E7144E3368002B03D1281C00F04BF83060281C211C00F046F8031C421CD0D00322C61C964386420AD11C60181C07210B301A1D8843821A0AD0AC
:4018C0005142995007E0311A281C00F02FF8431CBAD0331CECE770BD9801002094010020F8B5061C0C1C151C002904D1111CFFF79FFF041C18E0002A03D1FFF753FF2C1CAC
:4019000012E000F025F8A8420ED2301C291CFFF78FFF071E07D0211C2A1CFFF726FF301C211CFFF73FFF3C1C201CF8BD38B50023064C051C081C2360FEF7BCFC431C03D11F
:401940002368002B00D02B6038BDC046CC0100200B1F1A68101F002A04DA891804390B68D01804387047000000000000256400000D0A000000300F40000400400F400004A9
:40198000030405060708090A0B0C0E0F101112131415161718191B1C1D1E1F2021222325262728292A2B2E2F30313233343500004300232D302B2000686C4C006566674592
:4019C00046470030313233343536373839414243444546003031323334353637383961626364656600000000F8B5C046F8BC08BC9E467047A50100002D030000F8B5C04607
:401A0000F8BC08BC9E4670477D010000201A0000C800002088000000800000000000000000000000000400008F000000D00100200000E02EC05D00001800000000366E017F
:401A4000040404000000000000000000000000000000000000000000000000000000000000000000B019000000000000000000000000000000000000000000000000000091
:401A8000000000000000000000000000000000000000000000000000000000000000000000000000EC0000200000000000000000000000000000000000000000000000001A
:401AC00000000000000000000000000000000000000000000000000000000000000000000000000000000000000000000000000000000000000000000000000000000000E6
:401B000000000000000000000000000000000000000000000000000000000000000000000000000000000000000000000000000000000000000000000000000000000000A5
:401B40000000000000000000000000000000000000000000000000000000000000000000000000000000000000000000000000000000000000000000000000000000000065
:401B80000000000000000000000000000000000000000000000000000000000000000000000000000000000000000000000000000000000000000000000000000000000025
:0200000490303A
:02000000376661
:0200000490402A
:200000000000000000000000000000000000000000000000000000000000000000000000E0
:0200000490501A
:0C000000000204C81193110104D048F95B
:0200000490600A
:0100000001FE
:00000001FF